:100000000C94FE000C941B010C941B010C941B011E
:100010000C941B010C941B010C941B010C941B01F0
:100020000C941B010C941B010C941B010C941B01E0
:100030000C941B010C941B010C941B010C941B01D0
:100040000C941B010C941B010C941B010C941B01C0
:100050000C941B010C941B010C941B010C941B01B0
:100060000C941B010C941B010C941B010C941B01A0
:100070000C941B010C941B010C941B010C941B0190
:100080000C941B010C941B010C941B010C941B0180
:100090000C941B010C941B010C941B010C941B0170
:1000A0000C941B010C941B010C941B010C941B0160
:1000B0000C941B010C941B010C941D010C941B014E
:1000C0000C941B010C941B010C941B010C941B0140
:1000D0000C941B010C941B010C941B010C941B0130
:1000E0000C941B010C941B010C941B010C941B0120
:1000F0000C941B010C941B010C941B010C941B0110
:100100000C941B010C941B010C941B010C941B01FF
:100110000C941B010C941B010C941B010C941B01EF
:100120000C941B010C941B010C941B010C941B01DF
:100130000C941B010C941B010C941B010C941B01CF
:100140000C941B010C941B010C941B010C941B01BF
:100150000C941B010C941B010C941B010C941B01AF
:100160000C941B010C941B010C941B010C941B019F
:100170000C941B010C941B010C941B010C941B018F
:100180000C941B010C941B010C941B010C941B017F
:100190000C941B010C941B010C941B010C941B016F
:1001A0000C941B010C941B010C941B010C941B015F
:1001B0000C941B010C941B010C941B010C941B014F
:1001C0000C941B010C941B010C941B010C941B013F
:1001D0000C941B010C941B010C941B010C941B012F
:1001E0000C941B010C941B010C941B010C941B011F
:1001F0000C941B010C941B010C941B0111241FBEB9
:10020000CFEFCDBFDFE2DEBF10E2A0E0B0E2EEE56F
:10021000FCE002C005900D92A630B107D9F720E2AC
:10022000A6E0B0E201C01D92A534B207E1F70E943A
:100230004D010C942D060C9400001F920F920FB6E6
:100240000F9211242F933F934F935F936F937F935C
:100250008F939F93AF93BF93EF93FF9386E090E2CA
:100260000E944903FF91EF91BF91AF919F918F91B0
:100270007F916F915F914F913F912F910F900FBEA2
:100280000F901F90189580E1E0E6F6E081830895D5
:1002900080E1E0E6F6E087830895E0E5F0E0808124
:1002A00086608083818182FFFDCFE0E5F0E081817F
:1002B00081FFFDCF81E08093600098ED94BF809333
:1002C0004000E0E5F0E080818E7F8083E0E6F6E0AC
:1002D00088E0818384E08283E0EAF9E083E085833B
:1002E0008CEA868381E98783848184608483848126
:1002F000886084830E9443010E944B020F2EF0E02D
:10030000EF2EF0E2FF2EF02D00E210E2C0EAD9E07D
:100310000E948A020E9490021F928F93FF92EF9296
:100320001F930F930E9462030E944801F80190817D
:100330000F900F900F900F900F900F90992341F313
:1003400020E0898185FFFDCF98832F5FE22FF0E0C9
:10035000E05EFF4D90819111F4CFDACFEF920F93D1
:100360000E29442311F030E801C030E0032B222392
:1003700011F020E401C020E0022B2FB7F894609325
:10038000B000FC01008B2FBF0F91EF900895AF924A
:10039000CF92EF920F93E0E4F6E082E1818382E076
:1003A0008583A12CC12CE12C00E020E040E456E044
:1003B00060EC78E08EE390E20E949F020F91EF9054
:1003C000CF90AF9008950F931F93CF93DF93062F95
:1003D000C0E4D6E012E01E83682F60628EE390E2F4
:1003E0000E94CC02602F8EE390E20E94CC021D831B
:1003F000DF91CF911F910F910895FF920F931F935B
:10040000CF93DF93F82E192F062F22E0E0E4F6E0D9
:10041000268361E68EE390E20E94CC02002361F025
:10042000CF2DD12F10E060E08EE390E20E94CC024D
:1004300089931F5F1013F7CF82E0E0E4F6E0858335
:10044000DF91CF911F910F91FF900895FF920F932D
:100450001F93CF93DF9301E010E002C0000F111F44
:100460008A95E2F7C0E4D6E06894FF24F1F8FE82B2
:100470006FEF8EE390E20E94CC02FD82802329F090
:10048000602F87E00E94E30181E0DF91CF911F910F
:100490000F91FF900895EF920F931F93CF93DF93E7
:1004A0008BE795E10197F1F700C000000E94C701BA
:1004B0000F2EF7E0EF2EF02D08E120E040E06FE096
:1004C00080E296E00E94AE01C0E4D6E011E019831C
:1004D0001E836BE080E00E94E30160E081E00E9407
:1004E000E30161E081E10E94E30168E086E00E94AF
:1004F000E30160E085E00E94E3011D8387EE93E065
:100500000197F1F700C00000DF91CF911F910F918B
:10051000EF90089586E00E9426028823D9F308957B
:10052000CF93DF931F92CDB7DEB761E0CE01019686
:100530000E94FD0189810F90DF91CF910895AF92C4
:10054000CF92EF920F93FC016083718342835383B8
:100550001482CC2011F080E801C080E09A2D9064D4
:10056000A92EA82A222311F080E201C080E00061B8
:10057000A82A0A29DB010C93A081B1811196EC9283
:10058000158216820280F381E02D80EA81830F912B
:10059000EF90CF90AF900895DC01ED91FC91119711
:1005A0006383ED91FC9182818823ECF78381089528
:1005B000FC01A081B18114968C91149782FF03C035
:1005C00094E0908F02C093E0908F886014968C9393
:1005D000178A0895CF93DF93FC0193892489A08122
:1005E000B18114968C91149784FF07C083E0139611
:1005F0008C9385E0808F178A1CC08589891758F4F1
:100600008589EF01C80FD11D8B8117968C93858941
:100610008F5F858B0EC08689821728F48281816066
:1006200016968C9306C083E013968C9381E0808F9E
:10063000178ADF91CF910895FC018689883070F484
:10064000A081B18117968C919689DF01A90FB11D08
:100650001B968C9386898F5F868B08C0A081B181A1
:1006600083E013968C9382E0808F178A9489868921
:10067000891730F40190F081E02D82E083830895A2
:10068000A081B18187E013968C9381E0808F178AD7
:100690000895DC01ED91FC912481322F3C7019F01A
:1006A0000E94D802089526FF03C00E94EA0208951E
:1006B00022231CF40E941C03089526E0FC01208FD5
:1006C000178A0895AEE0B0E0E8E6F3E00C940A067D
:1006D0000D891E8986E08C8309831A838FEF9FE73B
:1006E0008D839E83AE01475E5F4F6F89788DCE010B
:1006F00001960E948403EF81F885E00FF11F1082BC
:100700002E96E4E00C942306ACE0B0E0EAE8F3E0D7
:100710000C94FC057C016B018A01FC011682178296
:10072000838181FFBDC1CE0101964C01F701938108
:10073000F60193FD859193FF81916F01882309F460
:10074000ABC1853239F493FD859193FF81916F019F
:10075000853229F4B70190E00E946C05E7CF512C57
:10076000312C20E02032A0F48B3269F030F480325A
:1007700059F0833269F420612CC08D3239F0803316
:1007800039F4216026C02260246023C0286021C083
:1007900027FD27C030ED380F3A3078F426FF06C029
:1007A000FAE05F9E300D1124532E13C08AE0389E6C
:1007B000300D1124332E20620CC08E3221F426FD20
:1007C0006BC1206406C08C3611F4206802C08836E4
:1007D00041F4F60193FD859193FF81916F018111A1
:1007E000C1CF982F9F7D9554933028F40C5F1F4FF5
:1007F000FFE3F9830DC0833631F0833771F0833521
:1008000009F05BC022C0F801808189830E5F1F4F11
:1008100044244394512C540115C03801F2E06F0E6A
:10082000711CF801A080B18026FF03C0652D70E027
:1008300002C06FEF7FEFC5012C870E9461052C017C
:1008400083012C852F77222E17C03801F2E06F0E1E
:10085000711CF801A080B18026FF03C0652D70E0F7
:1008600002C06FEF7FEFC5012C870E9456052C0157
:100870002C852068222E830123FC1BC0832D90E051
:1008800048165906B0F4B70180E290E00E946C056A
:100890003A94F4CFF50127FC859127FE81915F0101
:1008A000B70190E00E946C0531103A94F1E04F1AC4
:1008B00051084114510471F7E5C0843611F08936AE
:1008C00039F5F80127FF07C060817181828193812A
:1008D0000C5F1F4F08C060817181882777FD80956C
:1008E000982F0E5F1F4F2F76B22E97FF09C090955D
:1008F0008095709561957F4F8F4F9F4F2068B22EE6
:100900002AE030E0A4010E949E05A82EA81844C049
:10091000853729F42F7EB22E2AE030E025C0F22F51
:10092000F97FBF2E8F36C1F018F4883579F0B4C046
:10093000803719F0883721F0AFC02F2F2061B22EF9
:10094000B4FE0DC08B2D8460B82E09C024FF0AC0F0
:100950009F2F9660B92E06C028E030E005C020E148
:1009600030E002C020E132E0F801B7FE07C060814C
:100970007181828193810C5F1F4F06C060817181FC
:1009800080E090E00E5F1F4FA4010E949E05A82EFC
:10099000A818FB2DFF77BF2EB6FE0BC02B2D2E7F88
:1009A000A51450F4B4FE0AC0B2FC08C02B2D2E7E54
:1009B00005C07A2C2B2D03C07A2C01C0752C24FF86
:1009C0000DC0FE01EA0DF11D8081803311F4297EF6
:1009D00009C022FF06C07394739404C0822F8678E6
:1009E00009F0739423FD13C020FF06C05A2C731422
:1009F00018F4530C5718732C731468F4B70180E281
:100A000090E02C870E946C0573942C85F5CF7314AD
:100A100010F4371801C0312C24FF12C0B70180E355
:100A200090E02C870E946C052C8522FF17C021FFC7
:100A300003C088E590E002C088E790E0B7010CC0F1
:100A4000822F867859F021FD02C080E201C08BE23E
:100A500027FD8DE2B70190E00E946C05A51438F4E3
:100A6000B70180E390E00E946C055A94F7CFAA94F6
:100A7000F401EA0DF11D8081B70190E00E946C0540
:100A8000A110F5CF332009F451CEB70180E290E0F8
:100A90000E946C053A94F6CFF7018681978102C0D7
:100AA0008FEF9FEF2C96E2E10C941506FC01059068
:100AB000615070400110D8F7809590958E0F9F1F60
:100AC0000895FC016150704001900110D8F78095A5
:100AD00090958E0F9F1F08950F931F93CF93DF93D1
:100AE000182F092FEB018B8181FD03C08FEF9FEF42
:100AF00020C082FF10C04E815F812C813D81421752
:100B000053077CF4E881F9819F012F5F3F4F2883D1
:100B10003983108306C0E885F985812F0995892BD3
:100B200029F72E813F812F5F3F4F2E833F83812FF7
:100B3000902FDF91CF911F910F910895FA01AA276D
:100B4000283051F1203181F1E8946F936E7F6E5F10
:100B50007F4F8F4F9F4FAF4FB1E03ED0B4E03CD0BE
:100B6000670F781F891F9A1FA11D680F791F8A1FA1
:100B7000911DA11D6A0F711D811D911DA11D20D008
:100B800009F468943F912AE0269F11243019305DC2
:100B90003193DEF6CF010895462F4770405D4193B3
:100BA000B3E00FD0C9F7F6CF462F4F70405D4A3300
:100BB00018F0495D31FD4052419302D0A9F7EACFC8
:100BC000B4E0A6959795879577956795BA95C9F7F7
:100BD00000976105710508959B01AC010A2E0694EA
:100BE0005795479537952795BA95C9F7620F731FA3
:100BF000841F951FA01D08952F923F924F925F92E0
:100C00006F927F928F929F92AF92BF92CF92DF921C
:100C1000EF92FF920F931F93CF93DF93CDB7DEB781
:100C2000CA1BDB0BCDBFDEBF09942A8839884888F0
:100C30005F846E847D848C849B84AA84B984C884F8
:100C4000DF80EE80FD800C811B81AA81B981CE0FEF
:0E0C5000D11DCDBFDEBFED010895F894FFCF9A
:060C5E00253032780D0084
:00000001FF
