:100000000C94FE000C9410010C9410010C9410013F
:100010000C9410010C9410010C9410010C9410011C
:100020000C9410010C9410010C946D020C94950228
:100030000C9410010C9410010C9410010C941001FC
:100040000C9410010C9410010C9410010C941001EC
:100050000C9410010C9410010C9410010C941001DC
:100060000C9410010C9410010C9410010C941001CC
:100070000C9410010C9410010C9410010C941001BC
:100080000C9410010C9410010C9410010C941001AC
:100090000C9410010C9410010C9410010C9410019C
:1000A0000C9410010C9410010C9410010C9410018C
:1000B0000C9410010C9410010C9478010C94100114
:1000C0000C9410010C9410010C9410010C9410016C
:1000D0000C9410010C9410010C9410010C9410015C
:1000E0000C9410010C9410010C9410010C9410014C
:1000F0000C9410010C9410010C9410010C9410013C
:100100000C9410010C9410010C9410010C9410012B
:100110000C9410010C9410010C9410010C9410011B
:100120000C9410010C9410010C9410010C9410010B
:100130000C9410010C9410010C9410010C941001FB
:100140000C9410010C9410010C9410010C941001EB
:100150000C9410010C9410010C9410010C941001DB
:100160000C9410010C9410010C9410010C941001CB
:100170000C9410010C9410010C9410010C941001BB
:100180000C9410010C9410010C9410010C941001AB
:100190000C9410010C9410010C9410010C9410019B
:1001A0000C9410010C9410010C9410010C9410018B
:1001B0000C9410010C9410010C9410010C9410017B
:1001C0000C9410010C9410010C9410010C9410016B
:1001D0000C9410010C9410010C9410010C9410015B
:1001E0000C9410010C9410010C9410010C9410014B
:1001F0000C9410010C9410010C94100111241FBEDA
:10020000CFEFCDBFDFE2DEBF20E2A0E0B0E201C071
:100210001D92A232B207E1F70E949F020C94810462
:100220000C9400000F93CF93DF93EB0180931A207F
:1002300001E021E04AE150E269E181E090E20E94C0
:10024000B303E8E1F0E280818111FDCF80910C20C1
:10025000888381E0DF91CF910F9108950F93CF9321
:10026000DF9300D0CDB7DEB789836A8300E022E058
:10027000AE014F5F5F4F69E181E090E20E94B303FE
:10028000E8E1F0E280818111FDCF81E00F900F90D5
:10029000DF91CF910F91089520E040EC60EA74E087
:1002A00081E090E20E94A203E0EAF0E082818460B3
:1002B0008283789487E00E94A80182E00E94CE01A8
:1002C00080E00E94470287E00E9424020895CF93B5
:1002D000DF931F92CDB7DEB7BE016F5F7F4F8DE218
:1002E0000E941201898180580F90DF91CF9108956B
:1002F0001F920F920FB60F9211242F933F934F939B
:100300005F936F937F938F939F93AF93BF93EF937D
:10031000FF9381E090E20E946804FF91EF91BF910A
:10032000AF919F918F917F916F915F914F913F918D
:100330002F910F900FBE0F901F90189580E1E0E66F
:10034000F6E08183089580E1E0E6F6E08783089592
:100350001F93CF93DF931F92CDB7DEB7182FBE0147
:100360006F5F7F4F80E20E941201882381F020E1BD
:10037000129FC001112469816F70682B698380E22C
:100380000E942E0191E0811103C090E001C090E035
:10039000892F0F90DF91CF911F9108951F93CF93D5
:1003A000DF9300D0CDB7DEB7182FBE016F5F7F4F50
:1003B00080E20E9412018823C9F1BE016E5F7F4F67
:1003C00083E20E941201882399F18981982F907FFE
:1003D00029F490910020907F892B8983113089F036
:1003E00018F0123039F026C08981809300208F7078
:1003F00089830DC08981877F89838A8188608A8308
:1004000006C08981886089838A81877F8A83698120
:1004100080E20E942E01882379F06A8183E20E94A3
:100420002E0191E0811109C090E007C090E005C065
:1004300090E003C090E001C090E0892F0F900F90F2
:10044000DF91CF911F9108951F93CF93DF931F9258
:10045000CDB7DEB7182FBE016F5F7F4F80E20E94DD
:100460001201882369F017706981687F612B6983A5
:1004700080E20E942E0191E0811103C090E001C052
:1004800090E0892F0F90DF91CF911F9108951F93D6
:10049000CF93DF931F92CDB7DEB7182FBE016F5FEA
:1004A0007F4F83E20E941201882381F020E1129F96
:1004B000C001112469816F7C682B698383E20E94EB
:1004C0002E0191E0811103C090E001C090E0892FDE
:1004D0000F90DF91CF911F9108951F920F920FB649
:1004E0000F9211242F933F934F935F936F937F93BA
:1004F0008F939F93AF93BF93EF93FF930E946701F6
:100500000E9450030E94A301FF91EF91BF91AF9110
:100510009F918F917F916F915F914F913F912F911B
:100520000F900FBE0F901F9018951F920F920FB64D
:100530000F9211240F900FBE0F901F9018950E94DC
:100540009E010E942C030E944C01E0E0F4E082E353
:1005500090E0828793871086118681E090E08487FF
:1005600095878081887F816080838281807F85609C
:10057000828381E0E0E4F0E08383E0EAF0E08281DE
:1005800081608283E8E4F0E08081817F86608083FF
:1005900080818160808378948895FECFAF92CF92DE
:1005A000EF920F93E0E4F6E082E1818382E08583BD
:1005B000A12CC12CE12C00E020E040E456E060ECEE
:1005C00078E08BE190E20E9469030F91EF90CF9069
:1005D000AF9008950F931F93CF93DF93062FC0E43E
:1005E000D6E012E01E83682F60628BE190E20E94E9
:1005F0009603602F8BE190E20E9496031D83DF91AA
:10060000CF911F910F910895FF920F931F93CF9356
:10061000DF93F82E192F062F22E0E0E4F6E0268380
:1006200060EA8BE190E20E949603002359F0CF2DFF
:10063000D12F10E069918BE190E20E9496031F5F39
:100640001013F8CF82E0E0E4F6E08583DF91CF91EC
:100650001F910F91FF9008958BE795E10197F1F7B6
:1006600000C000000E94CE02E0E4F6E081E0818359
:1006700086836AE080E00E94EA0260E081E00E94F6
:10068000EA0268E086E00E94EA0260E085E00E94FB
:10069000EA0287EE93E00197F1F700C000000895A9
:1006A000CF93DF931F92CDB7DEB7898361E0CE0190
:1006B00001960E94040381E0E0E4F6E085838DE08A
:1006C0008A95F1F7000081E086830F90DF91CF914A
:1006D0000895AF92CF92EF920F93FC0160837183E4
:1006E000428353831482CC2011F080E801C080E063
:1006F0009A2D9064A92EA82A222311F080E201C02D
:1007000080E00061A82A0A29DB010C93A081B18155
:100710001196EC92158216820280F381E02D80EA18
:1007200081830F91EF90CF90AF900895DC01ED9110
:10073000FC9111976383ED91FC9182818823ECF702
:1007400083810895FC01608371834863DB01119606
:100750004C93A081B18115962C930190F081E02DEE
:1007600081E0848308950F93CF93DF93FC012930B8
:1007700098F5093098F58789811132C081E0878B1F
:10078000108E660F6283222369F0A42FB52F40E0FC
:1007900050E08D91EF01C40FD51F8B834F5F5F4FEA
:1007A0004217B8F3238B048B158A168A8389882312
:1007B00041F082818E7F0190F081E02D868381E07F
:1007C00012C08489882371F0828181600190F08158
:1007D000E02D868381E007C080E005C080E003C093
:1007E00080E001C081E0DF91CF910F910895FC017D
:1007F000A081B18114968C91149782FF03C094E07C
:10080000908F02C093E0908F886014968C93178A23
:100810000895CF93DF93FC0193892489A081B1814E
:1008200014968C91149784FF07C083E013968C93E1
:1008300085E0808F178A1CC08589891758F48589BF
:10084000EF01C80FD11D8B8117968C9385898F5F1F
:10085000858B0EC08689821728F482818160169666
:100860008C9306C083E013968C9381E0808F178A67
:10087000DF91CF910895FC018689883070F4A081C2
:10088000B18117968C919689DF01A90FB11D1B9636
:100890008C9386898F5F868B08C0A081B18183E0AD
:1008A00013968C9382E0808F178A948986898917A2
:1008B00030F40190F081E02D82E083830895A081DF
:1008C000B18187E013968C9381E0808F178A089519
:1008D000DC01ED91FC912481322F3C7019F00E94D3
:1008E000F703089526FF03C00E94090408952223F8
:1008F0001CF40E943B04089526E0FC01208F178A17
:060900000895F894FFCFFA
:00000001FF
