S010000052465F70617274312E7372656335
S1130000FDC000000BC10000E0C1000007C10000FA
S113001005C1000003C1000001C10000FFC00000D1
S1130020FDC00000FBC00000F9C00000F7C00000E4
S1130030F5C00000F3C00000F1C00000EFC00000F4
S1130040EDC00000EBC00000E9C00000E7C0000004
S1130050E5C00000E3C00000E1C00000DFC0000014
S1130060DDC00000DBC00000D9C00000D7C0000024
S1130070D5C00000D3C00000D1C00000CFC0000034
S1130080CDC00000CBC00000C9C00000C7C0000044
S1130090C5C00000C3C00000C1C00000BFC0000054
S11300A0BDC00000BBC00000B9C00000B7C0000064
S11300B0B5C00000B3C00000B1C00000AFC0000074
S11300C0ADC00000ABC00000A9C00000A7C0000084
S11300D0A5C00000A3C00000A1C000009FC0000094
S11300E09DC000009BC0000099C0000097C00000A4
S11300F095C0000093C0000091C000008FC00000B4
S11301008DC000008BC0000089C0000087C00000C3
S113011085C0000083C0000081C000007FC00000D3
S11301207DC000007BC0000079C0000077C00000E3
S113013075C0000073C0000071C000006FC00000F3
S11301406DC000006BC0000069C0000067C0000003
S113015065C0000063C0000061C000005FC0000013
S11301605DC000005BC0000059C0000057C0000023
S113017055C0000053C0000051C000004FC0000033
S11301804DC000004BC0000049C0000047C0000043
S113019045C0000043C0000041C000003FC0000053
S11301A03DC000003BC0000039C0000037C0000063
S11301B035C0000033C0000031C000002FC0000073
S11301C02DC000002BC0000029C0000027C0000083
S11301D025C0000023C0000021C000001FC0000093
S11301E01DC000001BC0000019C0000017C00000A3
S11301F015C0000013C0000011C0000011241FBE70
S1130200CFEFCDBFDFE2DEBF20E2A0E0B0E201C06D
S11302101D92A830B207E1F703D11AC1F1CE80E1F3
S1130220E0E6F6E08183089580E1E0E6F6E0878386
S11302300895AF92CF92EF920F93E0E4F6E082E15B
S1130240818382E08583A12CC12CE12C00E020E095
S113025040E456E060EC78E081E090E27DD00F91DC
S1130260EF90CF90AF9008950F931F93CF93DF93A8
S1130270062FC0E4D6E012E01E83682F606281E09E
S113028090E297D0602F81E090E293D01D83DF91BC
S1130290CF911F910F910895FF920F931F93CF93C6
S11302A0DF93F82E192F062F22E0E0E4F6E02683F0
S11302B060EA81E090E27DD0002351F0CF2DD12F70
S11302C010E0699181E090E274D01F5F1013F9CFC0
S11302D082E0E0E4F6E08583DF91CF911F910F91F6
S11302E0FF9008958BE795E10197F1F700C00000B6
S11302F0A0DFE0E4F6E081E0818386836AE080E0C9
S1130300B3DF60E081E0B0DF68E086E0ADDF6CE0A1
S113031085E0AADF87EE93E00197F1F700C00000C3
S113032008956FEF87E0A0CF0895CF93DF931F92D6
S1130330CDB7DEB7898361E0CE010196ADDF81E000
S1130340E0E4F6E085838AE08A95F1F781E086832C
S11303500F90DF91CF910895AF92CF92EF920F93C8
S1130360FC0160837183428353831482CC2011F097
S113037080E801C080E09A2D9064A92EA82A222347
S113038011F080E201C080E00061A82A0A29DB01A3
S11303900C93A081B1811196EC9215821682028091
S11303A0F381E02D80EA81830F91EF90CF90AF909D
S11303B00895DC01ED91FC9111976383ED91FC911B
S11303C082818823ECF7838108951F920F920FB6E0
S11303D00F9211242F933F934F935F936F937F93C7
S11303E08F939F93AF93BF93EF93FF939ADF1CDF99
S11303F08091002091E0980F9093002096DFFF9168
S1130400EF91BF91AF919F918F917F916F915F9188
S11304104F913F912F910F900FBE0F901F90189501
S1130420FEDEE0E4F6E084E0828392E0928B828751
S113043081E08187E0EAF0E08283789453DF71DF22
S11304408091002091E0980F909300206EDFFFCF01
S1070450F894FFCF4A
S9030000FC
